{
  "contractName": "TheBible",
  "abi": [
    {
      "inputs": [],
      "payable": false,
      "stateMutability": "nonpayable",
      "type": "constructor"
    },
    {
      "anonymous": false,
      "inputs": [
        {
          "indexed": false,
          "internalType": "uint256",
          "name": "code",
          "type": "uint256"
        }
      ],
      "name": "LogError",
      "type": "event"
    },
    {
      "anonymous": false,
      "inputs": [
        {
          "indexed": false,
          "internalType": "string",
          "name": "description",
          "type": "string"
        }
      ],
      "name": "LogNewProvableQuery",
      "type": "event"
    },
    {
      "anonymous": false,
      "inputs": [
        {
          "indexed": false,
          "internalType": "string",
          "name": "book",
          "type": "string"
        },
        {
          "indexed": false,
          "internalType": "string",
          "name": "chapter",
          "type": "string"
        },
        {
          "indexed": false,
          "internalType": "string",
          "name": "verse",
          "type": "string"
        }
      ],
      "name": "LogVerseAdded",
      "type": "event"
    },
    {
      "payable": true,
      "stateMutability": "payable",
      "type": "fallback"
    },
    {
      "constant": true,
      "inputs": [],
      "name": "owner",
      "outputs": [
        {
          "internalType": "address",
          "name": "",
          "type": "address"
        }
      ],
      "payable": false,
      "stateMutability": "view",
      "type": "function"
    },
    {
      "constant": true,
      "inputs": [],
      "name": "provableGasLimit",
      "outputs": [
        {
          "internalType": "uint256",
          "name": "",
          "type": "uint256"
        }
      ],
      "payable": false,
      "stateMutability": "view",
      "type": "function"
    },
    {
      "constant": true,
      "inputs": [],
      "name": "versePrice",
      "outputs": [
        {
          "internalType": "uint256",
          "name": "",
          "type": "uint256"
        }
      ],
      "payable": false,
      "stateMutability": "view",
      "type": "function"
    },
    {
      "constant": false,
      "inputs": [
        {
          "internalType": "string",
          "name": "concatenatedReference",
          "type": "string"
        }
      ],
      "name": "setVerse",
      "outputs": [],
      "payable": true,
      "stateMutability": "payable",
      "type": "function"
    },
    {
      "constant": false,
      "inputs": [
        {
          "internalType": "bytes32",
          "name": "myid",
          "type": "bytes32"
        },
        {
          "internalType": "string",
          "name": "result",
          "type": "string"
        }
      ],
      "name": "__callback",
      "outputs": [],
      "payable": false,
      "stateMutability": "nonpayable",
      "type": "function"
    },
    {
      "constant": false,
      "inputs": [
        {
          "internalType": "bytes32",
          "name": "_myid",
          "type": "bytes32"
        },
        {
          "internalType": "string",
          "name": "_result",
          "type": "string"
        },
        {
          "internalType": "bytes",
          "name": "_proof",
          "type": "bytes"
        }
      ],
      "name": "__callback",
      "outputs": [],
      "payable": false,
      "stateMutability": "nonpayable",
      "type": "function"
    },
    {
      "constant": false,
      "inputs": [
        {
          "internalType": "string",
          "name": "result",
          "type": "string"
        }
      ],
      "name": "processProvableText",
      "outputs": [
        {
          "internalType": "string",
          "name": "",
          "type": "string"
        },
        {
          "internalType": "string",
          "name": "",
          "type": "string"
        },
        {
          "internalType": "string",
          "name": "",
          "type": "string"
        },
        {
          "internalType": "string",
          "name": "",
          "type": "string"
        }
      ],
      "payable": false,
      "stateMutability": "nonpayable",
      "type": "function"
    },
    {
      "constant": true,
      "inputs": [
        {
          "internalType": "string",
          "name": "book",
          "type": "string"
        },
        {
          "internalType": "string",
          "name": "chapter",
          "type": "string"
        },
        {
          "internalType": "string",
          "name": "verse",
          "type": "string"
        }
      ],
      "name": "getVerse",
      "outputs": [
        {
          "internalType": "string",
          "name": "",
          "type": "string"
        }
      ],
      "payable": false,
      "stateMutability": "view",
      "type": "function"
    },
    {
      "constant": false,
      "inputs": [
        {
          "internalType": "uint256",
          "name": "_versePrice",
          "type": "uint256"
        }
      ],
      "name": "setVersePrice",
      "outputs": [],
      "payable": false,
      "stateMutability": "nonpayable",
      "type": "function"
    },
    {
      "constant": false,
      "inputs": [
        {
          "internalType": "uint256",
          "name": "_provableGasLimit",
          "type": "uint256"
        }
      ],
      "name": "setProvableGasLimit",
      "outputs": [],
      "payable": false,
      "stateMutability": "nonpayable",
      "type": "function"
    },
    {
      "constant": false,
      "inputs": [],
      "name": "withdraw",
      "outputs": [],
      "payable": false,
      "stateMutability": "nonpayable",
      "type": "function"
    }
  ],
  "bytecode": "0x60806040526040518061084001604052806040518060400160405280600c81526020017f31204368726f6e69636c6573000000000000000000000000000000000000000081525081526020016040518060400160405280600d81526020017f3120436f72696e746869616e730000000000000000000000000000000000000081525081526020016040518060400160405280600681526020017f31204a6f686e000000000000000000000000000000000000000000000000000081525081526020016040518060400160405280600781526020017f31204b696e67730000000000000000000000000000000000000000000000000081525081526020016040518060400160405280600781526020017f312050657465720000000000000000000000000000000000000000000000000081525081526020016040518060400160405280600881526020017f312053616d75656c00000000000000000000000000000000000000000000000081525081526020016040518060400160405280600f81526020017f31205468657373616c6f6e69616e73000000000000000000000000000000000081525081526020016040518060400160405280600981526020017f312054696d6f746879000000000000000000000000000000000000000000000081525081526020016040518060400160405280600c81526020017f32204368726f6e69636c6573000000000000000000000000000000000000000081525081526020016040518060400160405280600d81526020017f3220436f72696e746869616e730000000000000000000000000000000000000081525081526020016040518060400160405280600681526020017f32204a6f686e000000000000000000000000000000000000000000000000000081525081526020016040518060400160405280600781526020017f32204b696e67730000000000000000000000000000000000000000000000000081525081526020016040518060400160405280600781526020017f322050657465720000000000000000000000000000000000000000000000000081525081526020016040518060400160405280600881526020017f322053616d75656c00000000000000000000000000000000000000000000000081525081526020016040518060400160405280600f81526020017f32205468657373616c6f6e69616e73000000000000000000000000000000000081525081526020016040518060400160405280600981526020017f322054696d6f746879000000000000000000000000000000000000000000000081525081526020016040518060400160405280600681526020017f33204a6f686e000000000000000000000000000000000000000000000000000081525081526020016040518060400160405280600481526020017f416374730000000000000000000000000000000000000000000000000000000081525081526020016040518060400160405280600481526020017f416d6f730000000000000000000000000000000000000000000000000000000081525081526020016040518060400160405280600a81526020017f436f6c6f737369616e730000000000000000000000000000000000000000000081525081526020016040518060400160405280600681526020017f44616e69656c000000000000000000000000000000000000000000000000000081525081526020016040518060400160405280600b81526020017f4465757465726f6e6f6d7900000000000000000000000000000000000000000081525081526020016040518060400160405280600c81526020017f4563636c6573696173746573000000000000000000000000000000000000000081525081526020016040518060400160405280600981526020017f457068657369616e73000000000000000000000000000000000000000000000081525081526020016040518060400160405280600681526020017f457374686572000000000000000000000000000000000000000000000000000081525081526020016040518060400160405280600681526020017f45786f647573000000000000000000000000000000000000000000000000000081525081526020016040518060400160405280600781526020017f457a656b69656c0000000000000000000000000000000000000000000000000081525081526020016040518060400160405280600481526020017f457a72610000000000000000000000000000000000000000000000000000000081525081526020016040518060400160405280600981526020017f47616c617469616e73000000000000000000000000000000000000000000000081525081526020016040518060400160405280600781526020017f47656e657369730000000000000000000000000000000000000000000000000081525081526020016040518060400160405280600881526020017f486162616b6b756b00000000000000000000000000000000000000000000000081525081526020016040518060400160405280600681526020017f486167676169000000000000000000000000000000000000000000000000000081525081526020016040518060400160405280600781526020017f486562726577730000000000000000000000000000000000000000000000000081525081526020016040518060400160405280600581526020017f486f73656100000000000000000000000000000000000000000000000000000081525081526020016040518060400160405280600681526020017f497361696168000000000000000000000000000000000000000000000000000081525081526020016040518060400160405280600581526020017f4a616d657300000000000000000000000000000000000000000000000000000081525081526020016040518060400160405280600881526020017f4a6572656d69616800000000000000000000000000000000000000000000000081525081526020016040518060400160405280600381526020017f4a6f62000000000000000000000000000000000000000000000000000000000081525081526020016040518060400160405280600481526020017f4a6f656c0000000000000000000000000000000000000000000000000000000081525081526020016040518060400160405280600481526020017f4a6f686e0000000000000000000000000000000000000000000000000000000081525081526020016040518060400160405280600581526020017f4a6f6e616800000000000000000000000000000000000000000000000000000081525081526020016040518060400160405280600681526020017f4a6f73687561000000000000000000000000000000000000000000000000000081525081526020016040518060400160405280600481526020017f4a7564650000000000000000000000000000000000000000000000000000000081525081526020016040518060400160405280600681526020017f4a7564676573000000000000000000000000000000000000000000000000000081525081526020016040518060400160405280600c81526020017f4c616d656e746174696f6e73000000000000000000000000000000000000000081525081526020016040518060400160405280600981526020017f4c6576697469637573000000000000000000000000000000000000000000000081525081526020016040518060400160405280600481526020017f4c756b650000000000000000000000000000000000000000000000000000000081525081526020016040518060400160405280600781526020017f4d616c616368690000000000000000000000000000000000000000000000000081525081526020016040518060400160405280600481526020017f4d61726b0000000000000000000000000000000000000000000000000000000081525081526020016040518060400160405280600781526020017f4d6174746865770000000000000000000000000000000000000000000000000081525081526020016040518060400160405280600581526020017f4d6963616800000000000000000000000000000000000000000000000000000081525081526020016040518060400160405280600581526020017f4e6168756d00000000000000000000000000000000000000000000000000000081525081526020016040518060400160405280600881526020017f4e6568656d69616800000000000000000000000000000000000000000000000081525081526020016040518060400160405280600781526020017f4e756d626572730000000000000000000000000000000000000000000000000081525081526020016040518060400160405280600781526020017f4f6261646961680000000000000000000000000000000000000000000000000081525081526020016040518060400160405280600881526020017f5068696c656d6f6e00000000000000000000000000000000000000000000000081525081526020016040518060400160405280600b81526020017f5068696c69707069616e7300000000000000000000000000000000000000000081525081526020016040518060400160405280600881526020017f50726f766572627300000000000000000000000000000000000000000000000081525081526020016040518060400160405280600681526020017f5073616c6d73000000000000000000000000000000000000000000000000000081525081526020016040518060400160405280600a81526020017f526576656c6174696f6e0000000000000000000000000000000000000000000081525081526020016040518060400160405280600681526020017f526f6d616e73000000000000000000000000000000000000000000000000000081525081526020016040518060400160405280600481526020017f527574680000000000000000000000000000000000000000000000000000000081525081526020016040518060400160405280600f81526020017f536f6e67206f6620536f6c6f6d6f6e000000000000000000000000000000000081525081526020016040518060400160405280600581526020017f546974757300000000000000000000000000000000000000000000000000000081525081526020016040518060400160405280600981526020017f5a6563686172696168000000000000000000000000000000000000000000000081525081526020016040518060400160405280600981526020017f5a657068616e6961680000000000000000000000000000000000000000000000815250815250600a90604262000f5692919062000fc4565b5034801562000f6457600080fd5b5066354a6ba7a1800060068190555033600860006101000a81548173ffffffffffffffffffffffffffffffffffffffff021916908373ffffffffffffffffffffffffffffffffffffffff1602179055506207a1206009819055506200114a565b82604281019282156200100b579160200282015b828111156200100a57825182908051906020019062000ff99291906200101e565b509160200191906001019062000fd8565b5b5090506200101a9190620010a5565b5090565b828054600181600116156101000203166002900490600052602060002090601f016020900481019282601f106200106157805160ff191683800117855562001092565b8280016001018555821562001092579182015b828111156200109157825182559160200191906001019062001074565b5b509050620010a19190620010d6565b5090565b620010d391905b80821115620010cf5760008181620010c59190620010fe565b50600101620010ac565b5090565b90565b620010fb91905b80821115620010f7576000816000905550600101620010dd565b5090565b90565b50805460018160011615610100020316600290046000825580601f1062001126575062001147565b601f016020900490600052602060002090810190620011469190620010d6565b5b50565b61315a806200115a6000396000f3fe60806040526004361061009c5760003560e01c80638da5cb5b116100645780638da5cb5b146104745780638f0ea0bc146104cb578063b3196cda14610506578063b80ffa231461078b578063bb2c2ee3146109fa578063edafdb8214610a255761009c565b806327dc297e146101bc57806338bbfa501461028e5780633ccfd60b146103f7578063713eab561461040e5780637be98cdf14610439575b6006543410156100e3577f15aca0c4ae6bb11d153498ed393d51c24d71a3bcb5f8ccd157eb03b9ee71985760036040518082815260200191505060405180910390a16101ba565b600061013f6040518060400160405280600381526020017f55524c0000000000000000000000000000000000000000000000000000000000815250604051806060016040528060388152602001612f8a60389139600954610ae0565b90507fc4dc360d0a9c0677a3379ae0a3d81e887f761e65fdf3d7e00859d1bcd3c47389604051808060200182810382526034815260200180612fc26034913960400191505060405180910390a160016007600083815260200190815260200160002060006101000a81548160ff021916908315150217905550505b005b3480156101c857600080fd5b5061028c600480360360408110156101df57600080fd5b81019080803590602001909291908035906020019064010000000081111561020657600080fd5b82018360208201111561021857600080fd5b8035906020019184600183028401116401000000008311171561023a57600080fd5b91908080601f016020809104026020016040519081016040528093929190818152602001838380828437600081840152601f19601f820116905080830192505050505050509192919290505050611034565b005b34801561029a57600080fd5b506103f5600480360360608110156102b157600080fd5b8101908080359060200190929190803590602001906401000000008111156102d857600080fd5b8201836020820111156102ea57600080fd5b8035906020019184600183028401116401000000008311171561030c57600080fd5b91908080601f016020809104026020016040519081016040528093929190818152602001838380828437600081840152601f19601f8201169050808301925050505050505091929192908035906020019064010000000081111561036f57600080fd5b82018360208201111561038157600080fd5b803590602001918460018302840111640100000000831117156103a357600080fd5b91908080601f016020809104026020016040519081016040528093929190818152602001838380828437600081840152601f19601f820116905080830192505050505050509192919290505050611448565b005b34801561040357600080fd5b5061040c61146b565b005b34801561041a57600080fd5b50610423611571565b6040518082815260200191505060405180910390f35b34801561044557600080fd5b506104726004803603602081101561045c57600080fd5b8101908080359060200190929190505050611577565b005b34801561048057600080fd5b50610489611627565b604051808273ffffffffffffffffffffffffffffffffffffffff1673ffffffffffffffffffffffffffffffffffffffff16815260200191505060405180910390f35b3480156104d757600080fd5b50610504600480360360208110156104ee57600080fd5b810190808035906020019092919050505061164d565b005b34801561051257600080fd5b506105cc6004803603602081101561052957600080fd5b810190808035906020019064010000000081111561054657600080fd5b82018360208201111561055857600080fd5b8035906020019184600183028401116401000000008311171561057a57600080fd5b91908080601f016020809104026020016040519081016040528093929190818152602001838380828437600081840152601f19601f8201169050808301925050505050505091929192905050506116fd565b6040518080602001806020018060200180602001858103855289818151815260200191508051906020019080838360005b838110156106185780820151818401526020810190506105fd565b50505050905090810190601f1680156106455780820380516001836020036101000a031916815260200191505b50858103845288818151815260200191508051906020019080838360005b8381101561067e578082015181840152602081019050610663565b50505050905090810190601f1680156106ab5780820380516001836020036101000a031916815260200191505b50858103835287818151815260200191508051906020019080838360005b838110156106e45780820151818401526020810190506106c9565b50505050905090810190601f1680156107115780820380516001836020036101000a031916815260200191505b50858103825286818151815260200191508051906020019080838360005b8381101561074a57808201518184015260208101905061072f565b50505050905090810190601f1680156107775780820380516001836020036101000a031916815260200191505b509850505050505050505060405180910390f35b34801561079757600080fd5b5061097f600480360360608110156107ae57600080fd5b81019080803590602001906401000000008111156107cb57600080fd5b8201836020820111156107dd57600080fd5b803590602001918460018302840111640100000000831117156107ff57600080fd5b91908080601f016020809104026020016040519081016040528093929190818152602001838380828437600081840152601f19601f8201169050808301925050505050505091929192908035906020019064010000000081111561086257600080fd5b82018360208201111561087457600080fd5b8035906020019184600183028401116401000000008311171561089657600080fd5b91908080601f016020809104026020016040519081016040528093929190818152602001838380828437600081840152601f19601f820116905080830192505050505050509192919290803590602001906401000000008111156108f957600080fd5b82018360208201111561090b57600080fd5b8035906020019184600183028401116401000000008311171561092d57600080fd5b91908080601f016020809104026020016040519081016040528093929190818152602001838380828437600081840152601f19601f820116905080830192505050505050509192919290505050611969565b6040518080602001828103825283818151815260200191508051906020019080838360005b838110156109bf5780820151818401526020810190506109a4565b50505050905090810190601f1680156109ec5780820380516001836020036101000a031916815260200191505b509250505060405180910390f35b348015610a0657600080fd5b50610a0f611b44565b6040518082815260200191505060405180910390f35b610ade60048036036020811015610a3b57600080fd5b8101908080359060200190640100000000811115610a5857600080fd5b820183602082011115610a6a57600080fd5b80359060200191846001830284011164010000000083111715610a8c57600080fd5b91908080601f016020809104026020016040519081016040528093929190818152602001838380828437600081840152601f19601f820116905080830192505050505050509192919290505050611b4a565b005b60008073ffffffffffffffffffffffffffffffffffffffff16600160009054906101000a900473ffffffffffffffffffffffffffffffffffffffff1673ffffffffffffffffffffffffffffffffffffffff161480610b6857506000610b66600160009054906101000a900473ffffffffffffffffffffffffffffffffffffffff16611e8c565b145b15610b7957610b776000611e97565b505b600160009054906101000a900473ffffffffffffffffffffffffffffffffffffffff1673ffffffffffffffffffffffffffffffffffffffff166338cc48316040518163ffffffff1660e01b8152600401602060405180830381600087803b158015610be357600080fd5b505af1158015610bf7573d6000803e3d6000fd5b505050506040513d6020811015610c0d57600080fd5b810190808051906020019092919050505073ffffffffffffffffffffffffffffffffffffffff166000809054906101000a900473ffffffffffffffffffffffffffffffffffffffff1673ffffffffffffffffffffffffffffffffffffffff1614610d5657600160009054906101000a900473ffffffffffffffffffffffffffffffffffffffff1673ffffffffffffffffffffffffffffffffffffffff166338cc48316040518163ffffffff1660e01b8152600401602060405180830381600087803b158015610cdb57600080fd5b505af1158015610cef573d6000803e3d6000fd5b505050506040513d6020811015610d0557600080fd5b81019080805190602001909291905050506000806101000a81548173ffffffffffffffffffffffffffffffffffffffff021916908373ffffffffffffffffffffffffffffffffffffffff1602179055505b60008060009054906101000a900473ffffffffffffffffffffffffffffffffffffffff1673ffffffffffffffffffffffffffffffffffffffff16632ef3accc86856040518363ffffffff1660e01b81526004018080602001838152602001828103825284818151815260200191508051906020019080838360005b83811015610dec578082015181840152602081019050610dd1565b50505050905090810190601f168015610e195780820380516001836020036101000a031916815260200191505b509350505050602060405180830381600087803b158015610e3957600080fd5b505af1158015610e4d573d6000803e3d6000fd5b505050506040513d6020811015610e6357600080fd5b81019080805190602001909291905050509050823a02670de0b6b3a764000001811115610e96576000801b91505061102d565b6000809054906101000a900473ffffffffffffffffffffffffffffffffffffffff1673ffffffffffffffffffffffffffffffffffffffff1663c51be90f8260008888886040518663ffffffff1660e01b8152600401808581526020018060200180602001848152602001838103835286818151815260200191508051906020019080838360005b83811015610f38578082015181840152602081019050610f1d565b50505050905090810190601f168015610f655780820380516001836020036101000a031916815260200191505b50838103825285818151815260200191508051906020019080838360005b83811015610f9e578082015181840152602081019050610f83565b50505050905090810190601f168015610fcb5780820380516001836020036101000a031916815260200191505b5096505050505050506020604051808303818588803b158015610fed57600080fd5b505af1158015611001573d6000803e3d6000fd5b50505050506040513d602081101561101857600080fd5b81019080805190602001909291905050509150505b9392505050565b61103c611ea8565b73ffffffffffffffffffffffffffffffffffffffff163373ffffffffffffffffffffffffffffffffffffffff16146110bf576040517f08c379a0000000000000000000000000000000000000000000000000000000008152600401808060200182810382526028815260200180612ec96028913960400191505060405180910390fd5b600115156007600084815260200190815260200160002060009054906101000a900460ff1615151461113c576040517f08c379a000000000000000000000000000000000000000000000000000000000815260040180806020018281038252602581526020018061303e6025913960400191505060405180910390fd5b6007600083815260200190815260200160002060006101000a81549060ff021916905560608060608061116e856116fd565b80945081955082965083975050505050806005856040518082805190602001908083835b602083106111b55780518252602082019150602081019050602083039250611192565b6001836020036101000a0380198251168184511680821785525050505050509050019150509081526020016040518091039020846040518082805190602001908083835b6020831061121c57805182526020820191506020810190506020830392506111f9565b6001836020036101000a0380198251168184511680821785525050505050509050019150509081526020016040518091039020836040518082805190602001908083835b602083106112835780518252602082019150602081019050602083039250611260565b6001836020036101000a038019825116818451168082178552505050505050905001915050908152602001604051809103902090805190602001906112c9929190612dc2565b507f7ac2825bcbf294581f9f775de85b439b93052efd5671ad84c6ea98316d18a3f684848460405180806020018060200180602001848103845287818151815260200191508051906020019080838360005b8381101561133657808201518184015260208101905061131b565b50505050905090810190601f1680156113635780820380516001836020036101000a031916815260200191505b50848103835286818151815260200191508051906020019080838360005b8381101561139c578082015181840152602081019050611381565b50505050905090810190601f1680156113c95780820380516001836020036101000a031916815260200191505b50848103825285818151815260200191508051906020019080838360005b838110156114025780820151818401526020810190506113e7565b50505050905090810190601f16801561142f5780820380516001836020036101000a031916815260200191505b50965050505050505060405180910390a1505050505050565b6000801b600360008060001b815260200190815260200160002081905550505050565b600860009054906101000a900473ffffffffffffffffffffffffffffffffffffffff1673ffffffffffffffffffffffffffffffffffffffff163373ffffffffffffffffffffffffffffffffffffffff1614611511576040517f08c379a00000000000000000000000000000000000000000000000000000000081526004018080602001828103825260398152602001806130ba6039913960400191505060405180910390fd5b3373ffffffffffffffffffffffffffffffffffffffff166108fc3073ffffffffffffffffffffffffffffffffffffffff16319081150290604051600060405180830381858888f1935050505015801561156e573d6000803e3d6000fd5b50565b60095481565b600860009054906101000a900473ffffffffffffffffffffffffffffffffffffffff1673ffffffffffffffffffffffffffffffffffffffff163373ffffffffffffffffffffffffffffffffffffffff161461161d576040517f08c379a00000000000000000000000000000000000000000000000000000000081526004018080602001828103825260398152602001806130ba6039913960400191505060405180910390fd5b8060098190555050565b600860009054906101000a900473ffffffffffffffffffffffffffffffffffffffff1681565b600860009054906101000a900473ffffffffffffffffffffffffffffffffffffffff1673ffffffffffffffffffffffffffffffffffffffff163373ffffffffffffffffffffffffffffffffffffffff16146116f3576040517f08c379a00000000000000000000000000000000000000000000000000000000081526004018080602001828103825260398152602001806130ba6039913960400191505060405180910390fd5b8060068190555050565b60608060608060001515611710866121c5565b151514611785576040517f08c379a000000000000000000000000000000000000000000000000000000000815260040180806020018281038252601e8152602001807f5468652050726f7661626c6520726573756c742077617320656d7074792e000081525060200191505060405180910390fd5b61178d612e42565b611795612e6f565b61179e876121d2565b905060008090505b60048110156118ef576117b7612e6f565b6118076117f86040518060400160405280600381526020017f2d2d2d00000000000000000000000000000000000000000000000000000000008152506121d2565b8461220090919063ffffffff16565b90506001151561181e6118198361221a565b6121c5565b151514156118cc577f15aca0c4ae6bb11d153498ed393d51c24d71a3bcb5f8ccd157eb03b9ee71985760026040518082815260200191505060405180910390a16040517f08c379a000000000000000000000000000000000000000000000000000000000815260040180806020018281038252601a8152602001807f50726f7661626c6520746578742077617320696e76616c69642e00000000000081525060200191505060405180910390fd5b808483600481106118d957fe5b60200201819052505080806001019150506117a6565b5061190a8260006004811061190057fe5b602002015161221a565b6119248360016004811061191a57fe5b602002015161221a565b61193e8460026004811061193457fe5b602002015161221a565b6119588560036004811061194e57fe5b602002015161221a565b955095509550955050509193509193565b60606005846040518082805190602001908083835b602083106119a1578051825260208201915060208101905060208303925061197e565b6001836020036101000a0380198251168184511680821785525050505050509050019150509081526020016040518091039020836040518082805190602001908083835b60208310611a0857805182526020820191506020810190506020830392506119e5565b6001836020036101000a0380198251168184511680821785525050505050509050019150509081526020016040518091039020826040518082805190602001908083835b60208310611a6f5780518252602082019150602081019050602083039250611a4c565b6001836020036101000a03801982511681845116808217855250505050505090500191505090815260200160405180910390208054600181600116156101000203166002900480601f016020809104026020016040519081016040528092919081815260200182805460018160011615610100020316600290048015611b365780601f10611b0b57610100808354040283529160200191611b36565b820191906000526020600020905b815481529060010190602001808311611b1957829003601f168201915b505050505090509392505050565b60065481565b600654341015611ba5576040517f08c379a0000000000000000000000000000000000000000000000000000000008152600401808060200182810382526048815260200180612ff66048913960600191505060405180910390fd5b3073ffffffffffffffffffffffffffffffffffffffff1631611bfb6040518060400160405280600381526020017f55524c000000000000000000000000000000000000000000000000000000000081525061227c565b1115611cd5577fc4dc360d0a9c0677a3379ae0a3d81e887f761e65fdf3d7e00859d1bcd3c47389604051808060200182810382526050815260200180612f3a6050913960600191505060405180910390a17f15aca0c4ae6bb11d153498ed393d51c24d71a3bcb5f8ccd157eb03b9ee71985760016040518082815260200191505060405180910390a16040517f08c379a00000000000000000000000000000000000000000000000000000000081526004018080602001828103825260338152602001806130636033913960400191505060405180910390fd5b60001515611ce2826121c5565b151514611d3a576040517f08c379a0000000000000000000000000000000000000000000000000000000008152600401808060200182810382526049815260200180612ef16049913960600191505060405180910390fd5b6000611e0f6040518060400160405280600381526020017f55524c0000000000000000000000000000000000000000000000000000000000815250611e07611db66040518060400160405280600e81526020017f292e70726f7661626c65546578740000000000000000000000000000000000008152506121d2565b611df9611df4611dc5886121d2565b611de6604051806060016040528060248152602001613096602491396121d2565b61260d90919063ffffffff16565b6121d2565b61260d90919063ffffffff16565b600954610ae0565b90507fc4dc360d0a9c0677a3379ae0a3d81e887f761e65fdf3d7e00859d1bcd3c473896040518080602001828103825260338152602001806130f36033913960400191505060405180910390a160016007600083815260200190815260200160002060006101000a81548160ff0219169083151502179055505050565b6000813b9050919050565b6000611ea161268f565b9050919050565b60008073ffffffffffffffffffffffffffffffffffffffff16600160009054906101000a900473ffffffffffffffffffffffffffffffffffffffff1673ffffffffffffffffffffffffffffffffffffffff161480611f3057506000611f2e600160009054906101000a900473ffffffffffffffffffffffffffffffffffffffff16611e8c565b145b15611f4157611f3f6000611e97565b505b600160009054906101000a900473ffffffffffffffffffffffffffffffffffffffff1673ffffffffffffffffffffffffffffffffffffffff166338cc48316040518163ffffffff1660e01b8152600401602060405180830381600087803b158015611fab57600080fd5b505af1158015611fbf573d6000803e3d6000fd5b505050506040513d6020811015611fd557600080fd5b810190808051906020019092919050505073ffffffffffffffffffffffffffffffffffffffff166000809054906101000a900473ffffffffffffffffffffffffffffffffffffffff1673ffffffffffffffffffffffffffffffffffffffff161461211e57600160009054906101000a900473ffffffffffffffffffffffffffffffffffffffff1673ffffffffffffffffffffffffffffffffffffffff166338cc48316040518163ffffffff1660e01b8152600401602060405180830381600087803b1580156120a357600080fd5b505af11580156120b7573d6000803e3d6000fd5b505050506040513d60208110156120cd57600080fd5b81019080805190602001909291905050506000806101000a81548173ffffffffffffffffffffffffffffffffffffffff021916908373ffffffffffffffffffffffffffffffffffffffff1602179055505b6000809054906101000a900473ffffffffffffffffffffffffffffffffffffffff1673ffffffffffffffffffffffffffffffffffffffff1663c281d19e6040518163ffffffff1660e01b815260040160206040518083038186803b15801561218557600080fd5b505afa158015612199573d6000803e3d6000fd5b505050506040513d60208110156121af57600080fd5b8101908080519060200190929190505050905090565b6000808251149050919050565b6121da612e6f565b600060208301905060405180604001604052808451815260200182815250915050919050565b612208612e6f565b612213838383612be6565b5092915050565b60608082600001516040519080825280601f01601f1916602001820160405280156122545781602001600182028038833980820191505090505b50905060006020820190506122728185602001518660000151612c84565b8192505050919050565b60008073ffffffffffffffffffffffffffffffffffffffff16600160009054906101000a900473ffffffffffffffffffffffffffffffffffffffff1673ffffffffffffffffffffffffffffffffffffffff16148061230457506000612302600160009054906101000a900473ffffffffffffffffffffffffffffffffffffffff16611e8c565b145b15612315576123136000611e97565b505b600160009054906101000a900473ffffffffffffffffffffffffffffffffffffffff1673ffffffffffffffffffffffffffffffffffffffff166338cc48316040518163ffffffff1660e01b8152600401602060405180830381600087803b15801561237f57600080fd5b505af1158015612393573d6000803e3d6000fd5b505050506040513d60208110156123a957600080fd5b810190808051906020019092919050505073ffffffffffffffffffffffffffffffffffffffff166000809054906101000a900473ffffffffffffffffffffffffffffffffffffffff1673ffffffffffffffffffffffffffffffffffffffff16146124f257600160009054906101000a900473ffffffffffffffffffffffffffffffffffffffff1673ffffffffffffffffffffffffffffffffffffffff166338cc48316040518163ffffffff1660e01b8152600401602060405180830381600087803b15801561247757600080fd5b505af115801561248b573d6000803e3d6000fd5b505050506040513d60208110156124a157600080fd5b81019080805190602001909291905050506000806101000a81548173ffffffffffffffffffffffffffffffffffffffff021916908373ffffffffffffffffffffffffffffffffffffffff1602179055505b6000809054906101000a900473ffffffffffffffffffffffffffffffffffffffff1673ffffffffffffffffffffffffffffffffffffffff1663524f3889836040518263ffffffff1660e01b81526004018080602001828103825283818151815260200191508051906020019080838360005b8381101561257f578082015181840152602081019050612564565b50505050905090810190601f1680156125ac5780820380516001836020036101000a031916815260200191505b5092505050602060405180830381600087803b1580156125cb57600080fd5b505af11580156125df573d6000803e3d6000fd5b505050506040513d60208110156125f557600080fd5b81019080805190602001909291905050509050919050565b60608082600001518460000151016040519080825280601f01601f19166020018201604052801561264d5781602001600182028038833980820191505090505b509050600060208201905061266b8186602001518760000151612c84565b6126848560000151820185602001518660000151612c84565b819250505092915050565b6000806126af731d3b2638a7cc9f2cb3d298a3da7a90b67e5506ed611e8c565b111561275157731d3b2638a7cc9f2cb3d298a3da7a90b67e5506ed600160006101000a81548173ffffffffffffffffffffffffffffffffffffffff021916908373ffffffffffffffffffffffffffffffffffffffff1602179055506127486040518060400160405280600b81526020017f6574685f6d61696e6e6574000000000000000000000000000000000000000000815250612ccd565b60019050612be3565b600061277073c03a2615d5efaf5f49f60b7bb6583eaec212fdf1611e8c565b11156128125773c03a2615d5efaf5f49f60b7bb6583eaec212fdf1600160006101000a81548173ffffffffffffffffffffffffffffffffffffffff021916908373ffffffffffffffffffffffffffffffffffffffff1602179055506128096040518060400160405280600c81526020017f6574685f726f707374656e330000000000000000000000000000000000000000815250612ccd565b60019050612be3565b600061283173b7a07bcf2ba2f2703b24c0691b5278999c59ac7e611e8c565b11156128d35773b7a07bcf2ba2f2703b24c0691b5278999c59ac7e600160006101000a81548173ffffffffffffffffffffffffffffffffffffffff021916908373ffffffffffffffffffffffffffffffffffffffff1602179055506128ca6040518060400160405280600981526020017f6574685f6b6f76616e0000000000000000000000000000000000000000000000815250612ccd565b60019050612be3565b60006128f273146500cfd35b22e4a392fe0adc06de1a1368ed48611e8c565b11156129945773146500cfd35b22e4a392fe0adc06de1a1368ed48600160006101000a81548173ffffffffffffffffffffffffffffffffffffffff021916908373ffffffffffffffffffffffffffffffffffffffff16021790555061298b6040518060400160405280600b81526020017f6574685f72696e6b656279000000000000000000000000000000000000000000815250612ccd565b60019050612be3565b60006129b373a2998efd205fb9d4b4963afb70778d6354ad3a41611e8c565b1115612a555773a2998efd205fb9d4b4963afb70778d6354ad3a41600160006101000a81548173ffffffffffffffffffffffffffffffffffffffff021916908373ffffffffffffffffffffffffffffffffffffffff160217905550612a4c6040518060400160405280600a81526020017f6574685f676f65726c6900000000000000000000000000000000000000000000815250612ccd565b60019050612be3565b6000612a74736f485c8bf6fc43ea212e93bbf8ce046c7f1cb475611e8c565b1115612ad857736f485c8bf6fc43ea212e93bbf8ce046c7f1cb475600160006101000a81548173ffffffffffffffffffffffffffffffffffffffff021916908373ffffffffffffffffffffffffffffffffffffffff16021790555060019050612be3565b6000612af77320e12a1f859b3feae5fb2a0a32c18f5a65555bbf611e8c565b1115612b5b577320e12a1f859b3feae5fb2a0a32c18f5a65555bbf600160006101000a81548173ffffffffffffffffffffffffffffffffffffffff021916908373ffffffffffffffffffffffffffffffffffffffff16021790555060019050612be3565b6000612b7a7351efaf4c8b3c9afbd5ab9f4bbc82784ab6ef8faa611e8c565b1115612bde577351efaf4c8b3c9afbd5ab9f4bbc82784ab6ef8faa600160006101000a81548173ffffffffffffffffffffffffffffffffffffffff021916908373ffffffffffffffffffffffffffffffffffffffff16021790555060019050612be3565b600090505b90565b612bee612e6f565b6000612c0c8560000151866020015186600001518760200151612ce7565b90508460200151836020018181525050846020015181038360000181815250508460000151856020015101811415612c4e576000856000018181525050612c79565b8360000151836000015101856000018181510391508181525050836000015181018560200181815250505b829150509392505050565b5b60208110612ca85781518352602083019250602082019150602081039050612c85565b60006001826020036101000a0390508019835116818551168181178652505050505050565b8060029080519060200190612ce3929190612dc2565b5050565b6000808490506000868511612db25760208511612d6c57600060018660200360080260020a031960001b905060008186511690506000878a8a0103905060008386511690505b828114612d5e57818610612d4b578a8a019650505050505050612dba565b8580600101965050838651169050612d2d565b859650505050505050612dba565b60008585209050600091505b8588038211612db0576000868420905080821415612d9c5783945050505050612dba565b600184019350508180600101925050612d78565b505b868601925050505b949350505050565b828054600181600116156101000203166002900490600052602060002090601f016020900481019282601f10612e0357805160ff1916838001178555612e31565b82800160010185558215612e31579182015b82811115612e30578251825591602001919060010190612e15565b5b509050612e3e9190612e89565b5090565b60405180608001604052806004905b612e59612eae565b815260200190600190039081612e515790505090565b604051806040016040528060008152602001600081525090565b612eab91905b80821115612ea7576000816000905550600101612e8f565b5090565b90565b60405180604001604052806000815260200160008152509056fe43616c6c6261636b20646964206e6f74206f726967696e6174652066726f6d2050726f7661626c654120636f6e636174656e617465645265666572656e6365206d7573742062652070726f766964656420696e2074686520666f726d617420626f6f6b2f636861707465722f766572736550726f7661626c6520717565727920776173204e4f542073656e742c20706c656173652061646420736f6d652045544820746f20636f766572207468652050726f7661626c65207175657279206665656a736f6e2868747470733a2f2f6170692e6f75726269626c652e696f2f7665727365732f72616e646f6d292e70726f7661626c655465787450726f7661626c65207175657279207761732073656e742c207374616e64696e6720627920666f722074686520616e737765722e506c656173652073656e64206174206c65617374206173206d75636820455448206173207468652076657273655072696365207769746820796f7572207472616e73616374696f6e4944206e6f7420696e636c7564656420696e2050726f7661626c652076616c696420494473416464726573732062616c616e6365206973206e6f7420656e6f75676820746f20636f7665722050726f7661626c65206665656a736f6e2868747470733a2f2f6170692e6f75726269626c652e696f2f7665727365732f4f6e6c792074686520636f6e74726163742063726561746f72206d617920696e746572616374207769746820746869732066756e6374696f6e50726f7661626c65207175657279207761732073656e742c207374616e64696e6720627920666f722074686520616e73776572a265627a7a72315820a208e5ff009f9302b0a5d30fc22bc6784068d157af29ffccf7b10136ae24f01264736f6c634300050c0032",
  "source": "/* solium-disable no-trailing-whitespace */\n\npragma solidity >= 0.5.0 < 0.6.0;\nimport './provableAPI_0.5.sol';\nimport './strings.sol';\n\ncontract TheBible is usingProvable {\n  using strings for *;\n\n  mapping(string => mapping(string => mapping(string => string))) verses;\n  uint public versePrice;\n  mapping(bytes32=>bool) validProvableQueryIds;\n  address public owner;\n  uint public provableGasLimit;\n  /**\n   * At the point when all verses have been added, a user may read through all\n   * verses by querying [book][chapter][verse], wherein the chapter and verse\n   * are always incrementing numbers (as strings).\n   * \n   * Therefore, all books names are added upon instantiation. To get all verses for\n   * John, for example, a user need only query incrementing chapter and verse numbers\n   * until he receives an undefined value (once all verses have been added).\n   * */\n  string[66] books = [\n    '1 Chronicles',\n    '1 Corinthians',\n    '1 John',\n    '1 Kings',\n    '1 Peter',\n    '1 Samuel',\n    '1 Thessalonians',\n    '1 Timothy',\n    '2 Chronicles',\n    '2 Corinthians',\n    '2 John',\n    '2 Kings',\n    '2 Peter',\n    '2 Samuel',\n    '2 Thessalonians',\n    '2 Timothy',\n    '3 John',\n    'Acts',\n    'Amos',\n    'Colossians',\n    'Daniel',\n    'Deuteronomy',\n    'Ecclesiastes',\n    'Ephesians',\n    'Esther',\n    'Exodus',\n    'Ezekiel',\n    'Ezra',\n    'Galatians',\n    'Genesis',\n    'Habakkuk',\n    'Haggai',\n    'Hebrews',\n    'Hosea',\n    'Isaiah',\n    'James',\n    'Jeremiah',\n    'Job',\n    'Joel',\n    'John',\n    'Jonah',\n    'Joshua',\n    'Jude',\n    'Judges',\n    'Lamentations',\n    'Leviticus',\n    'Luke',\n    'Malachi',\n    'Mark',\n    'Matthew',\n    'Micah',\n    'Nahum',\n    'Nehemiah',\n    'Numbers',\n    'Obadiah',\n    'Philemon',\n    'Philippians',\n    'Proverbs',\n    'Psalms',\n    'Revelation',\n    'Romans',\n    'Ruth',\n    'Song of Solomon',\n    'Titus',\n    'Zechariah',\n    'Zephaniah'\n  ];\n\n  modifier onlyProvable() {\n    require(msg.sender == provable_cbAddress(), 'Callback did not originate from Provable');\n\n    _;\n  }\n  \n  modifier onlyOwner() {\n    require(msg.sender == owner, 'Only the contract creator may interact with this function');\n    \n    _;\n  }\n\n  event LogNewProvableQuery(string description);\n  event LogError(uint code);\n  event LogVerseAdded(string book, string chapter, string verse);\n\n  constructor() public {\n    versePrice = 15000000000000000;\n    \n    owner = msg.sender;\n    \n    provableGasLimit = 500000;\n  }\n\n  function setVerse(string memory concatenatedReference) public payable {\n    require(\n      msg.value >= versePrice,\n      'Please send at least as much ETH as the versePrice with your transaction'\n    );\n\n    if (provable_getPrice(\"URL\") > address(this).balance) {\n      emit LogNewProvableQuery(\n        \"Provable query was NOT sent, please add some ETH to cover the Provable query fee\"\n      );\n      \n      emit LogError(1);\n\n      revert('Address balance is not enough to cover Provable fee');\n    }\n    \n    require(\n      textIsEmpty(concatenatedReference) == false,\n      'A concatenatedReference must be provided in the format book/chapter/verse'\n    );\n\n    bytes32 queryId = provable_query(\n      \"URL\",\n      \"json(https://api.ourbible.io/verses/\"\n        .toSlice()\n        .concat(concatenatedReference.toSlice())\n        .toSlice()\n        .concat(\").provableText\".toSlice()),\n      provableGasLimit\n    );\n    \n    emit LogNewProvableQuery(\"Provable query was sent, standing by for the answer\");\n\n    validProvableQueryIds[queryId] = true;\n  }\n\n  function __callback(bytes32 myid, string memory result) public onlyProvable() {\n    require(\n      validProvableQueryIds[myid] == true,\n      'ID not included in Provable valid IDs'\n    );\n    \n    delete validProvableQueryIds[myid];\n\n    string memory book;\n    string memory chapter;\n    string memory verse;\n    string memory text;\n\n    (book, chapter, verse, text) = processProvableText(result);\n\n    verses[book][chapter][verse] = text;\n    \n    emit LogVerseAdded(book, chapter, verse);\n  }\n\n  function processProvableText(string memory result) public returns (\n    string memory,\n    string memory,\n    string memory,\n    string memory\n  ) {\n    require(\n      textIsEmpty(result) == false,\n      'The Provable result was empty.'\n    );\n\n    // The result should be in the format: book---chapter---verse---text\n    \n    strings.slice[4] memory parts;\n\n    strings.slice memory full = result.toSlice();\n\n    for (uint i = 0; i < 4; i++) {\n      strings.slice memory part = full.split(\"---\".toSlice());\n        \n      if (textIsEmpty(part.toString()) == true) {\n        emit LogError(2);\n\n        revert('Provable text was invalid.');\n      }\n      \n      parts[i] = part;\n    }\n\n    return (\n      parts[0].toString(),\n      parts[1].toString(),\n      parts[2].toString(),\n      parts[3].toString()\n    );\n  }\n\n  function textIsEmpty(string memory _string) internal pure returns(bool) {\n    return bytes(_string).length == 0;\n  }\n\n  function getVerse(\n    string memory book,\n    string memory chapter,\n    string memory verse\n  ) public view returns(string memory) {\n    return verses[book][chapter][verse];\n  }\n  \n  function setVersePrice(uint _versePrice) public onlyOwner() {\n    versePrice = _versePrice;\n  }\n  \n  function setProvableGasLimit(uint _provableGasLimit) public onlyOwner() {\n    provableGasLimit = _provableGasLimit;\n  }\n  \n  function withdraw() public onlyOwner() {\n    msg.sender.transfer(address(this).balance);\n  }\n  \n  function() external payable {\n    if (msg.value < versePrice) {\n      emit LogError(3);\n      \n      return;\n    }\n   \n    bytes32 queryId = provable_query(\n      \"URL\",\n      \"json(https://api.ourbible.io/verses/random).provableText\",\n      provableGasLimit\n    );\n    \n    emit LogNewProvableQuery(\"Provable query was sent, standing by for the answer.\");\n    \n    validProvableQueryIds[queryId] = true;\n  }\n}\n",
  "sourcePath": "/Users/johnwall/Desktop/CryptOpinion/OurBible/our-bible-contracts/contracts/TheBible.sol",
  "compiler": {
    "name": "solc",
    "version": "0.5.12+commit.7709ece9.Emscripten.clang"
  },
  "schemaVersion": "3.0.18",
  "updatedAt": "2020-01-18T04:16:21.020Z",
  "devdoc": {
    "methods": {}
  },
  "userdoc": {
    "methods": {}
  }
}